:020000040800F2
:1000000018B6002079020008B5230008AD230008C7
:10001000B12300080F1C0008E92B000800000000B5
:10002000000000000000000000000000AD250008F6
:10003000B1200008000000003D240008C12600088F
:10004000930200089302000893020008930200083C
:10005000930200089302000893020008930200082C
:100060009302000893020008B520000893020008DC
:10007000930200089302000893020008930200080C
:1000800093020008930200089302000893020008FC
:10009000892B00089302000893020008D120000871
:1000A00093020008930200089302000893020008DC
:1000B0009302000893020008252700089302000815
:1000C00093020008930200089302000893020008BC
:1000D00093020008930200083929000879290008D2
:1000E000930200089302000893020008930200089C
:1000F000930200089302000893020008930200088C
:10010000930200089302000893020008930200087B
:10011000CD28000805290008930200089302000872
:10012000930200089302000893020008930200085B
:1001300000F002F800F090F80AA090E8000C824469
:100140008344AAF10107DA4501D100F085F8AFF246
:10015000090EBAE80F0013F0010F18BFFB1A43F0A5
:100160000103184780560000A0560000103A24BF33
:1001700078C878C1FAD8520724BF30C830C144BF0C
:1001800004680C607047000000230024002500264E
:10019000103A28BF78C1FBD8520728BF30C148BFEA
:1001A0000B6070476E2900F03483702900F06F8176
:1001B000662905F0CB81652905F0C881672905F01E
:1001C000C5816129AFF3008003681B0A28BF41F095
:1001D0008001692900F0E080642900F0DD80752944
:1001E00000F0DA806F2900F02D84782900F03B813F
:1001F000E92900F0C783E42900F0C483F52900F061
:10020000C183EF2900F02A84F82900F03A810368BD
:10021000DB0928BF41F08001632900F03683732990
:1002200000F03B83E32900F0E586F32900F0EA863D
:10023000002070471FB500F09FFF04000020002140
:1002400005F058F9401C60600020002105F068F9B5
:10025000E0601FBD10B510BD00F069FF1146FFF74B
:10026000E9FF04F079FB01F047F803B4FFF7F2FF70
:1002700003BC02F0D6FC000009488047094800474B
:10028000FEE7FEE7FEE7FEE7FEE7FEE7FEE7FEE746
:10029000FEE7FEE704480549054A064B70470000A3
:1002A000C52600083101000818B0002018B600204B
:1002B00018B2002018B20020704700001CB50C4690
:1002C000064B7B4469460090204600F0BCFA044689
:1002D0000020694600F0CAFA20461CBDA7050000B0
:1002E0000FB4044910B503AA029800F0DBFA10BC61
:1002F0005DF814FB3000002070B504468569006885
:10030000C10601D5302600E02026C00707D070BD09
:10031000D4E9012130469047206A401C20626D1EBE
:10032000F6D570BD70B5044685690078C00707D161
:1003300070BDD4E9012120209047206A401C206232
:100340006D1EF6D570BD70B50C460546012A05D068
:100350002878800600D5EA69002302E0012305E041
:100360005B1C934202D2E05C0028F9D1A869E61830
:10037000C01AA861286A184428622846FFF7BCFF03
:1003800004E0D5E9012114F8010B9047B442F8D3F9
:100390002846FFF7C7FF70BD2DE9F041064600244F
:1003A00010687529314616A510D000F0C7F900284D
:1003B00002DA404213A507E031688A0701D512A589
:1003C00002E0490704D511A5012401E000F0BFF9BE
:1003D00000210A2206F1240709E0B0FBF2FCB0FB81
:1003E000F2F302FB1C00303078541846491C0028F8
:1003F000F3D123462A463046BDE8F04100F0B0B9BB
:10040000000000002D0000002B0000002000000074
:10041000F0B40D460188090502D5214C7C4402E068
:100420001F4C7C440E34002100F1240608E002F049
:100430000F071209E75D42EA03721B097754491C52
:1004400052EA0307F3D102780023120704D5702D76
:1004500006D009B1022311342246F0BC00F080B965
:1004600001231034F8E770B504460D4621461068A4
:1004700000F06DF9024629462046BDE87040002391
:10048000C6E7D21D22F00703D3E90023C0E70368C3
:10049000126843F0200303600823C3610023B7E719
:1004A000C45100002DE9F05F894604464FF0000A70
:1004B000DFF874B1FB44C0F820A02046E16888470B
:1004C000002874D0252806D0D4E901219047206A5D
:1004D000401C2062F1E700265F462046E16888471D
:1004E0002028054607DB312D05D2781910F8200C9D
:1004F00008B10643F1E7B00701D526F00406C4F8B9
:100500001CA00027C4F818A02A2D09D0284602F004
:1005100081FB38B304EB8708303DC8F8185019E068
:1005200059F8041B204604EB87029161E168884773
:10053000012F054618D1E069002820DA26F02006B0
:100540001DE0D8F8180000EB800005EB40003038C3
:10055000C8F818002046E1688847054602F05AFBB3
:100560000028EED1012F0AD02E2D08D12046E168B7
:1005700088477F1C0546022F46F02006C4DBA06991
:10058000002803DA404246F00106A061F00701D0DE
:1005900026F010066C2D0BD0682D09D04C2D39D0CB
:1005A0006A2D35D0742D35D07A2D33D016E038E051
:1005B000E1682F4620468847B842054609D16C2F8E
:1005C00026D04FF48060E168064320468847054600
:1005D00004E06C2F1AD04FF4807006430DB3A5F1E0
:1005E0004100192802D8203546F400664A462946BB
:1005F000204626604E46FFF7D5FD80B101280BD07E
:10060000F61D26F0070000F1080956E74020E4E750
:100610008020D8E70020D6E706F104094DE72846F8
:1006200052E7206ABDE8F09F5451000070B50646BD
:1006300000F080F80468054630460A22002100F0E8
:1006400017FA2C6070BD0000014A00F049BA0000A2
:100650006400002030B505460B462A4613F8014BCE
:1006600012F8010B08B1A042F8D01CB1002802D04A
:100670006D1CF1E7284630BD10B5203AC0F00B8064
:10068000B1E81850203AA0E81850B1E81850A0E896
:100690001850BFF4F5AF5FEA027C24BFB1E81850F0
:1006A000A0E8185044BF18C918C0BDE810405FEA60
:1006B000827C24BF51F8043B40F8043B08BF7047DC
:1006C000D20728BF31F8023B48BF11F8012B28BFE1
:1006D00020F8023B48BF00F8012B70474FF00002A2
:1006E00000B5134694469646203922BFA0E80C5028
:1006F000A0E80C50B1F12001BFF4F7AF090728BF03
:10070000A0E80C5048BF0CC05DF804EB890028BF7E
:1007100040F8042B08BF704748BF20F8022B11F0A7
:10072000804F18BF00F8012B704770477047704723
:100730007047000000487047B4AF002009684A05C0
:1007400001D540B27047C905FCD500B270470968B1
:100750004A0501D5C0B27047C905FCD580B27047C3
:100760002DE9F0470D4699469246044600F12408CB
:100770000168880604D5E06921F01001216000E0DD
:100780000120A84201DD471B00E00027A1697A197A
:1007900002EB0900081AA0612078C00602D42046A6
:1007A000FFF7AAFD002608E0D4E901211AF80600A7
:1007B0009047206A401C761C20624E45F4DB20786E
:1007C000C0060AD52046FFF797FD06E0D4E90121CF
:1007D00030209047206A401C2062381EA7F1010794
:1007E000F4DC07E0D4E9012118F805009047206AFD
:1007F000401C2062281EA5F10105F3DC2046FFF70E
:1008000091FD2078000602D50220BDE8F087012086
:10081000FBE711680268006A530501D508700AE019
:10082000D30501D5088006E0130603D5C217C1E938
:10083000000200E0086001207047000001694A1CC6
:1008400002610878704700B58FB0CDE90131002111
:10085000059105497944CDE9031011466846FFF733
:1008600021FE0FB000BD0000E5FFFFFF0A6802F89F
:10087000010B0A60704710B5436913B1AFF30080F4
:1008800001E0FFF760FD012010BD127800F12401A6
:100890000A7000224A700122EDE711684FF0FF3222
:1008A000E9E70000074B70B50D467B44FFF7CBFF2F
:1008B0000446284600F0F9FB10B14FF0FF3070BD40
:1008C000204670BD172800002DE9FF5F15468A46B7
:1008D0000446DFF8AC80F8440027D8E900103E4613
:1008E000CDE9001010E03AF816106A4602A800F0B0
:1008F000E0FB411C07D02178890603D5E26939184D
:1009000091420DD80744761C2078800602D5E06914
:10091000B84205DDAE42E6DB3AF816000028E2D127
:10092000A069C01BA0612046FFF7E6FCD8E90010D3
:10093000CDE90010002017E03AF818106A4602A826
:1009400000F0B7FBB0F1FF3F81460BD000250DF161
:10095000080B05E0D4E901211BF8050090476D1C48
:100960004D45F7D308F10100B0428046E4DB206A30
:10097000384420622046FFF7D5FCBDE8FF9F000009
:10098000464D00002DE9F0418046D21D22F00702BD
:100990000025D2E90002F52915A614D0011E72F136
:1009A000000106DA0023D0EB030063EB020211A67C
:1009B00008E0D8F800108B0701D50FA602E0490720
:1009C00001D50EA601251146002408F1240704E0F4
:1009D00000F0B4F830323A55641C50EA0102F7D105
:1009E0002B46324621464046BDE8F041FFF7B8BEEF
:1009F000000000002D0000002B000000200000007F
:100A000030B4002100F1240408E002F00705D20808
:100A1000303542EA4372DB086554491C52EA03054B
:100A2000F3D10468002310A2250708D504F02004A0
:100A30000C4304D0C46901230CA2641EC46130BC01
:100A4000FFF78EBE10B5044621461068FFF77FFE03
:100A500002462046BDE810400023D1E7D21D22F017
:100A60000701D1E90023CBE70000000030000000BF
:100A70002DE9F04791460F4680460446002614F8BB
:100A8000015B2DB100F052F80068405DC007F6D15F
:100A90002B2D02D02D2D18D0641E4A4639462046F3
:100AA00000F0B4FA27B13968A14201D1C7F800803B
:100AB0004FF0020471050BD54042002803DDFFF71B
:100AC00039FE0460A007BDE8F08746F48066E4E7DD
:100AD0000028F8DAFFF72EFE04606FF00040F2E71E
:100AE0002DE9F04115460E46040002D12C6804B9E8
:100AF0000BA4204600F00DFB0444207870B127467B
:100B00003146384600F0F5FA0444207810B1002050
:100B100004F8010B38462C60BDE8F0810027F9E7A6
:100B20000000000000487047B4AF002010B500F08E
:100B300023FB001D10BD00BFBD49000030B5B0F162
:100B40000A024FEA900E71F100034EEA817EB0EB8B
:100B50000E0061EB91014FEA101E4EEA017E10EB90
:100B60000E0041EB11114FEA102E4EEA016E10EB10
:100B70000E0041EB11214FEA104E4EEA014E10EBF0
:100B80000E0041EB1141401841F100014FEAD00045
:100B900040EA41704FEAD10110EB80054FEA810431
:100BA00044EA907444EB01046D1944EB0404521BB5
:100BB000A3414FF0000348BF0A3200D530BD401CAE
:100BC00041F1000130BD70472DE9FF4F0C461E4634
:100BD0004FF0FF378BB0D2E90001DDF860800A905A
:100BE0008A46C1F30A5505B93D46002108464FF033
:100BF0000000BAF1000F00F4400005DA00EB8000BD
:100C00004FF4400101EA50004FEA9059B9F1010F49
:100C100000DDB9460A9850EA4A000ED044F610505A
:100C2000A5F2FF3545432F14B8F1000F1ED07542D1
:100C3000291E1EDDC9F100021CE0B8F1010F4FF0C2
:100C4000000001D0302103E0F24305E02154401CB4
:100C5000B042FBDB30460022002121540B99C1F841
:100C60000880C1E900200FB0BDE8F08FBD1B6D1CEE
:100C7000DEE74A4600DA694206A800F0CFFA06AB82
:100C800093E8070003AB83E8070050460A9900F099
:100C900079FB8DE80700A0F500501F3800900398FD
:100CA000002D09DD42F21F014A46084403A90390C2
:100CB000684600F0D8FD08E0A0F500504A461F380D
:100CC00003A90390684600F0E2FD8DE807000004E8
:100CD000000C03D04FF0FF30410800E01046B8F19F
:100CE000000F03D00022009215461EE0751E05D4A9
:100CF000FFF724FF303262556D1EF9D5B34601224D
:100D0000084302D000227F1C04E02078302801D163
:100D100000227F1E002A099786D01DE0112D07DAD8
:100D2000FFF70CFF303262556D1C50EA0102F5D11D
:100D3000084302D00098C8B10EE00021681E05E00B
:100D4000235C625C63542254401E491C8142F7DBE1
:100D5000AB46A81B401E0990002004F80B000B981E
:100D6000099AC0F80880C0E9002B7CE711264FF0F3
:100D7000000859E72DE9F04F88460446D21D22F0BD
:100D8000070191B0D1E90001CDE90A0101F02EFF80
:100D900002460B98C00F01D02D2007E02068810784
:100DA00001D52B2002E0202101EAC000032A09908E
:100DB00001D0072A05DB03464146204600F0E0F952
:100DC0000BE12078800601D5E06900E00620B8F14B
:100DD000650F814606D0B8F1660F18D0B8F1670FDD
:100DE00070D131E00020B9F1110F009001DB112327
:100DF00001E009F101030AAA01A90CA8FFF7E4FE2A
:100E0000DDE90C70002609F10105834647E0012069
:100E10004B4600904FF000470AAA01A90CA8FFF723
:100E2000D3FEDDE90DB00C995D46002610B909F13D
:100E300001000D18B9EB050003D4C0F1FF3609F12C
:100E40000105A5EB09002BE0B9F1010F01DA4FF024
:100E500001090020B9F1110F0090484601DD11236E
:100E600000E003460AAA01A90CA8FFF7ADFEDDE9E0
:100E70000C704D4600268346207800070AD4AB4507
:100E800000DA5D4601A8012D04DD411911F8011CAD
:100E9000302907D04F4502DA17F1040F04DA012098
:100EA00082460FE06D1EEEE7002F02DCED1B3E4494
:100EB00003E0781CA84200DD7D1CB81B00F1010A8C
:100EC0004FF000472078000703D4AA4501DB4FF01C
:100ED000FF3A0021B7F1004F0DF143088DF84310A0
:100EE00024D002202B23002F01DA7F422D230A2158
:100EF000021EA0F1010000DC5FB197FBF1FC97FB43
:100F0000F1F201FB1C7C17460CF1300C08F801CD06
:100F1000EEE7A8F1010003702188090501D54521FC
:100F200000E06521A0F1010800F8011C09980FA953
:100F3000A1EB0807FF1D00B10120411901EBEA7088
:100F4000A1693844081A401EA0612078C00602D466
:100F50002046FFF7D1F9099828B1D4E9012190473B
:100F6000206A401C20622078C00622D52046FFF768
:100F7000C3F91EE0002E04DBB34502DD01A8805D4D
:100F800000E03020D4E901219047206A401C206213
:100F9000761CAAF101005FEA000A0AD100F0ECF821
:100FA000C0680168405CD4E901219047206A401C78
:100FB0002062281EA5F10105DCDC07E0D4E901214F
:100FC00018F8010B9047206A401C2062381EA7F1D8
:100FD0000107F3DC2046FFF7A5F9032011B043E633
:100FE00010B5436913B1AFF3008001E0FFF76CFC6B
:100FF000012010BD128800F1240182840022C284E5
:101000000122EDE711684FF0FF32E9E72DE9F05FCB
:10101000824615468B4600270AF10104B94600783E
:10102000302801D09DB113E014F8010B0127782876
:1010300003D0582801D045B10AE00DB1102D07D1D9
:10104000002714F8010B102502E0082500E00A250E
:101050000026B0460EE005FB080005FB06F101275F
:101060001FFA80F801EB1046B6F5803F00D3B94671
:1010700014F8010B294600F0C3F80028EBDABBF1A5
:10108000000F05D00FB1641E00E05446CBF80040BD
:10109000B9F1000F06D0FFF74DFB02210160C81E19
:1010A000BDE8F09F48EA0640FAE7007B00F08000C8
:1010B000704770B516460C460546FFF737FD0368C6
:1010C00093F80101012806D0FF2C0FD8185D68B1F4
:1010D00001202C7070BDD3F807013246214603F27F
:1010E000071303442846BDE8704018474FF0FF300F
:1010F00070BD30B503461D781DB10A4603E0AC4211
:1011000001D1181A30BD12F8014B002CF7D15B1C2D
:10111000F1E730B503461D783DB10A4612F8014BA0
:101120001CB1AC42FAD15B1CF5E7181A30BD75460C
:10113000FFF7F8FCAE4605006946534620F007006D
:10114000854618B020B5FFF7A5F8BDE820404FF060
:1011500000064FF000074FF000084FF0000B21F0A1
:101160000701AC46ACE8C009ACE8C009ACE8C0096E
:10117000ACE8C0098D46704700487047D4AF0020E6
:101180002DE9F0411F46044603260168072A01F4B1
:10119000006004DB08B116A505E016A503E008B160
:1011A00015A500E015A521F010002060A069C01E63
:1011B000A0610FB1401EA0612046FFF79DF84FB11E
:1011C000D4E9012138469047206A401C2062C01CA7
:1011D000206206E0206AFAE7D4E9012115F8010B44
:1011E0009047761EF8D22046FFF79CF8BDE8F081C4
:1011F0004E414E006E616E00494E4600696E6600BB
:101200003A2800D2303820F02002412A01D3A2F13E
:101210003700884201D34FF0FF3070472DE9F04787
:10122000814616468AB0334878440DC88DE80D00D3
:1012300030487844801C03AC0DC884E80D0041F6AA
:101240009B300844372190FBF1F290FBF1F5A5F1BA
:10125000800501FB12041B3C02D56442012000E022
:101260000020DFF890A080460027FA44AAF1BE0AC9
:101270000DE0E00709D03246684607EB47010AEB6C
:10128000810100F004FB8DE8070064107F1C002C36
:10129000EFD1184F7F44AC3F18E0E80714D007EBBC
:1012A00004100DF1180A90E80E008AE80E00C068DC
:1012B000F04201D198190890324606A903A800F01F
:1012C000E6FA03AB83E807006D10641C002DE4D13F
:1012D00032466946B8F1000F03A802D000F0C3FA05
:1012E00001E000F0D4FAC9E90001C9F808200AB009
:1012F000BDE8F087784400000446AFF30080204644
:10130000FEF7B3FF4FF0013C50F8042B51F8043BBB
:101310009A4221D1A2EB0C03934313EACC1317D1C9
:1013200050F8042B51F8043B9A4215D1A2EB0C0360
:10133000934313EACC130BD150F8042B51F8043B20
:101340009A4209D1A2EB0C03934313EACC13DBD0EE
:101350004FF00000704700BFD01A01BAB1FA81F116
:1013600001F0180122FA01F0CB40C1F12001DBB2FB
:10137000C0B2C01A2CFA01F3D11A914311EAC31179
:10138000E6D170475FEA400C08BF91F0000F4FEACA
:101390008C234FEAC12243EA51514FEA1C5018BF37
:1013A00000F5F0404FEA300018BF41F000415FEA1D
:1013B0006C5C00F02980BCF1FF3F08BF40F080402A
:1013C0007047130C06BF12044FF0100C4FF0000CC6
:1013D000130E04BF12020CF1080C130F04BF12010C
:1013E0000CF1040C930F04BF92000CF1020CD30F0C
:1013F00004BF52000CF1010C11464FF00002A0F1A5
:101400001F00A0EB0C00704711F0004F08BF7047A1
:1014100031F000413FF4D5AF0B0C06BF09044FF08B
:10142000100C4FF0000C0B0E04BF09020CF1080C5D
:101430000B0F04BF09010CF1040C8B0F04BF8900D2
:101440000CF1020CCB0F04BF49000CF1010CCCF1E4
:101450002003A0EB0C0022FA03F302FA0CF241EA9B
:10146000030100F10100704720F07F4C80EA030087
:1014700023F07F47ACEB070303F57C5300F00040FB
:1014800003F1FF032DE980494FEA154B09B44FEAF8
:10149000144325EA0B4E24EA03480FF2042606EB18
:1014A000132749083E785FEA320203FB0667C7F557
:1014B000000707FB06F64FEA54374FEAD64606F117
:1014C000020607FB066CCCF1005C4FEA1C472CEAD5
:1014D000074C07FB06F40CFB06F504EB15464FEA38
:1014E000961634BF00204FF000404FEAD13706FB7C
:1014F00007FC4FEA1C4C0CFB0BF7D21B03FB0CF751
:1015000061EB07010CFB0EF7B0EB074072EB1742E3
:101510000CFB08F734BFA2EB0742B2EB074261EBCA
:1015200017414FEA0C444FEA910706FB07FC4FEACC
:101530001C4C0CFB0BF7B0EBC74072EB573203FBB4
:101540000CF734BFA2EBC742B2EBC74261EB573195
:101550000CFB0EF7B0EBC70072EB57720CFB08F7F1
:1015600034BFA2EBC702B2EBC70261EB5771039F16
:101570004FEA816141EA921104EBCC044FEAD13782
:101580004FEA826206FB07FC42EA90124FEA806053
:101590004FEA1C4C0CFB0BF7D21B03FB0CF761EB67
:1015A00007010CFB0EF7B0EB074072EB17420CFB88
:1015B00008F734BFA2EB0742B2EB074261EB1741D9
:1015C0004FEA8C554FEA910704EB9C2406FB07FC7D
:1015D0004FEA1C4C0CFB0BF7B0EBC74072EB5732D9
:1015E00003FB0CF734BFA2EBC742B2EBC74261EB7F
:1015F00057310CFB0EF7B0EBC70072EB57720CFBC8
:1016000008F734BFA2EBC702B2EBC70261EB577118
:1016100015EB4C254FEA816141EA92114FEA826253
:101620004FEAD13742EA901206FB07FC44F100046E
:101630004FEA80604FEA1C4C0CFB0BF7D21B03FBFC
:101640000CF761EB07010CFB0EF7B0EB074072EBF8
:1016500017420CFB08F734BFA2EB0742B2EB07427C
:1016600061EB174115EB1C154FEA813141EA9241BC
:101670004FEA823242EA90424FEA80304FEA0C76DB
:1016800044F1000448EA03434EEA0B484FF0000ED1
:10169000B2EB080C71EB030724BF624639464EEBF0
:1016A0000E0E4FF0000B0018524149414BEB0B0B53
:1016B000B2EB080C71EB03077BF1000B24BF624611
:1016C00039464EEB0E0E4FF0000B001852414941C7
:1016D0004BEB0B0BB2EB080C71EB03077BF1000B30
:1016E00024BF624639464EEB0E0E51EA020718BF80
:1016F00046F0010616EB0E7655F1000254F100019A
:1017000003D5BDE88901BDE80088BDE88901BDE8D1
:101710000048B619524141EB0101A3F101037047A2
:1017200080807F7E7D7C7B7A79787776767574731E
:10173000727171706F6E6E6D6C6C6B6A6A696868DD
:10174000676666656464636362616160605F5F5E73
:101750005E5D5D5C5C5B5B5A5A59595858575756E9
:10176000565555555454535352525251515050504E
:101770004F4F4F4E4E4D4D4D4C4C4C4B4B4B4A4AA0
:101780004A494949484848474747474646464545E4
:10179000454444444443434343424242424141411D
:1017A000002B26D4770021D01CB54FEA370703B4AD
:1017B0004FF010004FF010014FF000000FBCBDE8DB
:1017C00010400BF1010BBBF1010F08BF5FEA1707D7
:1017D00022BF12F1010211F101014FF0004143F16A
:1017E000000300F0004043EA00007047F9D35708B7
:1017F000DAE746EA064613F1400F4FEA16461FDDC8
:1018000013F1200FDFBF16430A46002120335B424D
:10181000C8D0C3F1200746EA064602FA07F74FEAA6
:10182000164646EA0706C3F1200722FA03F201FA38
:1018300007F721FA03F14FF0000342EA0702B1E78C
:1018400046EA020646EA06464FEA164646EA010618
:10185000BCBF46EA0646360C4FF000034FF00002CC
:101860004FF000019EE72DE9C048934630B491E85F
:10187000380007C831EA400C48BF34EA430C03D5AE
:10188000FFF7F2FDFFF78CFFF0BCBDE800882DE903
:10189000C048934630B491E8380007C810F0804F34
:1018A00008BF13F0804F03D100F005F8FFF778FF71
:1018B000F0BCBDE8008820F07F4780EA030023F0F9
:1018C0007F4C07EB0C03A3F57C5300F00040A3F121
:1018D000FE0392F0000F00F0B38095F0000F00F0CF
:1018E00077802DE901494FEA11404FEA144621EA79
:1018F000004800FB06FC24EA064708FB06F607FB47
:1019000008F800FB07F718EB06484CEB164C4FEABB
:10191000124B18EB07484FEA15464CEB174022EAEA
:101920000B4E0BFB06FC25EA06470EFB06F607FBF3
:101930000EFE0BFB07F71EEB064E4CEB164C4FF062
:1019400000061EEB074E4CEB174B18EB0B0840F153
:10195000000018EB0E0B58EB000840F100008F1A46
:101960004FF000013CBFC943661B14BFB5EB040C2C
:1019700000213CBFC943F61B4FEA17444EEA8E0EC6
:1019800027EA04454FEA1C4704FB07622CEA074C90
:1019900005FB07F70CFB05F604FB0CFC16EB0746F2
:1019A00042EB174216EB0C4642EB1C421BEB0606C1
:1019B00058EB0202414146EA9E0601D5BDE8018985
:1019C000B619524141EB0101A3F10103BDE80189C0
:1019D0004FEA14454FEA114724EA054621EA074C2D
:1019E00005FB07F406FB07F70CFB06F105FB0CFCF7
:1019F00011EB074144EB17444FEA124711EB0C413E
:101A000044EB1C4422EA074C05FB07F206FB07F7F0
:101A10000CFB06F605FB0CFC16EB074642EB1742E7
:101A200016EB0C4642EB1C456A1854F1000148BF06
:101A30007047B619524141EB0101A3F10103704710
:101A400095F0000F37D04FEA11424FEA144721EAD0
:101A5000024624EA074C02FB07F106FB07F70CFBE2
:101A600006F402FB0CFC14EB074441EB17414FEA70
:101A7000154714EB0C4441EB1C4125EA074C02FBD3
:101A800007F506FB07F70CFB06F602FB0CFC16EB52
:101A9000074645EB174516EB0C4645EB1C42121961
:101AA00051F1000148BF7047B619524141EB0101A5
:101AB000A3F1010370474FEA14454FEA114724EAA6
:101AC000054621EA074C05FB07F106FB07F70CFB6F
:101AD00006F24FF0000605FB0CFC12EB074241EB4F
:101AE000174112EB0C4251EB1C4148BF7047921852
:101AF00041EB0101A3F10103704721B1826842F07B
:101B00000102826003E0826822F001028260704775
:101B100010B504461248844208D10121401500F056
:101B2000CBFC0021601500F0C7FC17E00D48844293
:101B300008D10121001500F0BFFC0021201500F0A4
:101B4000BBFC0BE00848844208D10121C80300F027
:101B5000B3FC00214FF4004000F0AEFC10BD0000CB
:101B60000024014000280140003C014001460020C3
:101B70008A6802F004020AB1012000E000207047E8
:101B8000014600208A6802F008020AB1012000E044
:101B90000020704730B502460020002350680F4CEB
:101BA00020400D790C6844EA052420435060906879
:101BB0000B4C2040D1E902542C434D7944EA4504B2
:101BC00020439060D06A20F470000C7C641EE4B264
:101BD000234340EA0350D06230BD0000FFFEF0FF17
:101BE000FDF7F1FF816841F008018160704721B184
:101BF000826842F4A002826003E0826822F4A002BC
:101C000082607047816841F004018160704700BFC5
:101C1000FEE7000010B504460B48844209D10121BB
:101C2000480600F029FC00214FF0007000F024FC71
:101C300008E00121880600F01FFC00214FF08060C1
:101C400000F01AFC10BD00000064004010B5002137
:101C5000837A012202FA03F13D4A126842F001023E
:101C60003B4B1A603A4A1C3212688A43384B1C3389
:101C70001A60027BCAB9364A0C3212688A43344B66
:101C80000C331A604288C38842EA0343304A403228
:101C9000847A42F834300288838842EA03432C4A2B
:101CA0004032847A02EBC4025360027B012A19D1CC
:101CB000274A0C3212680A43254B0C331A604288BB
:101CC000038842EA0343224A4032847A42F834309D
:101CD000C288838842EA03431D4A4032847A02EB79
:101CE000C4025360C27A3AB9194A121D12688A4373
:101CF000174B1B1D1A6006E0154A121D12680A4395
:101D0000134B1B1D1A60028932B9114A1432126832
:101D10008A430F4B14331A600289012A06D10C4AF8
:101D2000143212680A430A4B14331A60427B012AA8
:101D300006D1074A1C3212680A43054B1C331A604D
:101D4000034A126822F00102014B1A6010BD000024
:101D5000006600401AB143690B43436102E04369E6
:101D60008B434361704730B502460020002314685E
:101D700024F002041460146844F00104146000E0CC
:101D80005B1C546804F001041CB94FF6FF74A342B5
:101D9000F6D1546804F001040CB900206CE08C7991
:101DA000012C04D1146844F08004146003E014682A
:101DB00024F080041460CC79012C04D1146844F020
:101DC0004004146003E0146824F0400414600C7AAA
:101DD000012C04D1146844F02004146003E014685A
:101DE00024F0200414604C7A012C04D1146844F0CF
:101DF0001004146003E0146824F0100414608C7A5A
:101E0000012C04D1146844F00804146003E0146841
:101E100024F008041460CC7A012C04D1146844F036
:101E20000404146003E0146824F0040414608C7843
:101E3000A407CD7844EA05640D7944EA05444D7958
:101E400044EA05540D886D1E2C43D461146824F0B7
:101E500001041460002300E05B1C546804F00104DA
:101E60001CB14FF6FF74A342F6D1546804F001048C
:101E70000CB1002000E0012030BD10B500F5D87392
:101E800003EB01131B6803F004031372137A53B9B5
:101E900000F5D87303EB01131B6840F2FF7404EAEA
:101EA0005353136009E000F5D87303EB01131B686B
:101EB0006FF0604404EAD303536000F5D87303EB7A
:101EC00001131B6803F00203537200F5D87303EB90
:101ED00001135B6803F00F03937200F5D87303EBF3
:101EE00001135B681B0AD37400F5D87303EB01136D
:101EF0009B68D37200F5D87303EB01139B681C0A2F
:101F0000147300F5D87303EB01139B681C0C547316
:101F100000F5D87303EB01139B681B0E937300F558
:101F2000D87303EB0113DB68D37300F5D87303EBAD
:101F30000113DB681C0A147400F5D87303EB01135A
:101F4000DB681C0C547400F5D87303EB0113DB68D9
:101F50001B0E937421B9C36843F02003C36003E0F0
:101F6000036943F02003036110BD00218171C17139
:101F7000017241728172C1728170C170032101715D
:101F80000221417101210180704710B502460020F5
:101F9000936803F08063B3F1806F00D110E0936821
:101FA00003F00063B3F1006F01D1012008E09368F2
:101FB00003F08053B3F1805F01D1022000E00420E0
:101FC000042874D002F5C07303EB00131B6803F000
:101FD000010402F5C07303EB00131C600B7A7BB99C
:101FE0004B7A0C8843EA445302F5C07404EB0014A6
:101FF0002468234302F5C07404EB0014236010E04E
:102000000B7A4C6843EAC4034C7A234302F5C0744C
:1020100004EB00142468234302F5C07404EB00149D
:1020200023608B7A03F00F038B7202F5C07303EB0E
:1020300000135B6823F00F0402F5C07303EB001379
:102040005C6002F5C07303EB00135B688C7A23437A
:1020500002F5C07404EB001463608B7B1C064B7BA1
:1020600044EA03440B7B44EA0323CC7A234302F57E
:10207000C07404EB0014A3608B7C1C064B7C44EA08
:1020800003440B7C44EA0323CC7B234302F5C07456
:1020900004EB0014E36002F5C07303EB00131B684C
:1020A00043F0010402F5C07303EB00131C6010BD84
:1020B0007047000010B5102000F022F828B103A0EE
:1020C000FEF70EF9102000F015F810BD0D0A4900BA
:1020D00010B5802000F014F828B103A0FEF700F935
:1020E000802000F007F810BD0D0A43686172676533
:1020F00021212100014908607047000014040140BB
:10210000014600200022074B1B6803EA0102054B31
:1021100014331B680B4013B10AB1012000E000200A
:102120007047000000040140002123498279002A01
:102130003AD00A46126803689A430B461A600A1D91
:10214000126803689A430B1D1A60027911440A68E9
:1021500003681A430A60184A0832126803689A43EF
:10216000154B08331A601A1D126803689A43124B04
:102170000C331A604279102A0ED11A1F12680368B4
:102180001A430D4B08331A601A1D126803681A436C
:10219000094B0C331A600DE00749427911440A6873
:1021A00003681A430A6005E0027911440A6803686B
:1021B0009A430A60704700000004014030B50022D5
:1021C0008B071C0F0F2303FA04F20B4B8C1053F8F0
:1021D00024309343084C8D1044F8253023468C104E
:1021E00053F824308C07240F00FA04F42343024CE4
:1021F0008D1044F8253030BD080001402DE9F04134
:10220000024600250026002000230024002791F824
:1022100003C00CF00F0591F803C00CF0100CBCF1DA
:10222000000F03D091F802C04CEA050591F800C0F8
:10223000BCF1000F31D0146800202BE04FF0010CEE
:102240000CFA00F3B1F800C00CEA03069E4220D15C
:1022500083004FF00F0C0CFA03F7BC4305FA03FCA4
:102260004CEA040491F803C0BCF1280F06D14FF0EA
:10227000010C0CFA00FCC2F814C00AE091F803C08B
:10228000BCF1480F05D14FF0010C0CFA00FCC2F86C
:1022900010C0401C0828D1D31460B1F800C0BCF1B4
:1022A000FF0F34DD546800202EE000F1080C4FF0E1
:1022B000010808FA0CF3B1F800C00CEA03069E42CC
:1022C00021D183004FF00F0C0CFA03F7BC4305FA41
:1022D00003FC4CEA040491F803C0BCF1280F05D1BB
:1022E00000F1080C08FA0CF8C2F8148091F803C049
:1022F000BCF1480F07D100F1080C4FF0010808FAB3
:102300000CF8C2F81080401C0828CED35460BDE8F9
:10231000F0810000F0B50A460023002400210025CA
:1023200000F00046B6F1004F02D11D4EF16901E008
:102330001B4E7168C0F3034583B200F44016B6F536
:10234000401F08D121F07061154E766826F0706646
:10235000134F7E6012E000F48016B6F5801F06D1A0
:10236000032606FA05F4A14341F0706106E0460D2C
:10237000360103FA06F6B14341F0706122B1460D11
:10238000360103FA06F6314300F00046B6F1004F7D
:1023900002D1034EF16101E0014E7160F0BD000019
:1023A00000000140416170470161704700BFFEE7D6
:1023B00000BFFEE77047000070B5002100230F2228
:1023C000C47804B3154C246804F4E064C4F5E064F4
:1023D000210AC1F10403CA40447804FA03F1847865
:1023E0001440214309010E4C0678A155047804F0ED
:1023F0001F050124AC4005786D11AD0005F1E02505
:10240000C5F8004109E0047804F01F050124AC4040
:10241000044D0678761145F8264070BD0CED00E0BD
:1024200000E400E080E100E002490143024A11605B
:10243000704700000000FA050CED00E07047000056
:1024400001460020034A506820F440400843506091
:10245000704700000010024029B1064AD2690243C9
:10246000044BDA6104E0034AD2698243014BDA612A
:10247000704700000010024029B1064A1269024369
:10248000044B1A6104E0034A12698243014B1A614A
:10249000704700000010024029B1064A92690243C9
:1024A000044B9A6104E0034A92698243014B9A61AA
:1024B000704700000010024029B1064AD26802436A
:1024C000044BDA6004E0034AD2688243014BDA60CD
:1024D000704700000010024030B5002100220024A7
:1024E00000232D4D6D6805F00C0121B1042905D0A4
:1024F000082923D105E0294D056022E0274D05601C
:102500001FE0254D6D6805F47012234D6D6805F4CC
:102510008034022505EB92421CB9214D55430560DC
:102520000BE01D4D6D6805F400351DB11C4D554384
:10253000056002E0194D5543056002E0174D056046
:1025400000BF00BF144D6D6805F0F0010909154D7D
:102550006B5C0568DD4045600F4D6D6805F4E0611A
:10256000090A104D6B5C4568DD4085600A4D6D6859
:1025700005F46051C90A0B4D6B5C4568DD40C560D0
:10258000054D6D6805F44041890B074D6B5CC568CE
:10259000B5FBF3F5056130BD0010024000127A0072
:1025A00000093D000000002010000020704700B529
:1025B00000F002F800BD00000CB500200190009072
:1025C0003348006840F480303149086000BF30482B
:1025D000006800F4003000900198401C01900098C1
:1025E00018B90198B0F5A06FF1D12948006800F43E
:1025F000003010B10120009001E000200090009810
:10260000012843D12348006840F0100021490860A8
:102610000846006820F0030008600846006840F0A3
:10262000020008601A484068194948600846406836
:1026300048600846406840F480604860084640684A
:1026400020F47C1048600846406840F4E810486078
:102650000846006840F08070086000BF0C480068C1
:1026600000F000700028F9D00948406820F003000D
:10267000074948600846406840F00200486000BFD3
:102680000348406800F00C000828F9D10CBD000098
:102690000010024000200240042808D14FF0E02141
:1026A000096941F004014FF0E022116107E04FF0A9
:1026B000E021096921F004014FF0E0221161704727
:1026C0007047000010B51348006840F00100114940
:1026D000086008464068104908400E4948600846AE
:1026E00000680E4908400B4908600846006820F45D
:1026F000802008600846406820F4FE0048604FF4DF
:102700001F008860FFF753FF4FF000600449086026
:1027100010BD0000001002400000FFF8FFFFF6FEB1
:1027200008ED00E010B50121244800F062F800280F
:1027300042D023480078401CC0B2214908700028CC
:1027400004DD002008701F4801F0ECFE1E480078F0
:10275000401CC0B21C4908700A281FDB002008700A
:102760001A4802F089F817480089002804DD154846
:102770000089401E1349088112484089002804DD61
:1027800010484089401E0F4948810E48407B002870
:1027900004DD0C48407B401E0A4948730C48007811
:1027A000401CC0B20A490870642801DB0020087090
:1027B0000121024800F00EF810BD000000080040A2
:1027C000380000204000002039000020680600206A
:1027D0003A000020CA430282704721B1028842F0C9
:1027E0000102028004E002884FF6FE731A40028064
:1027F000704730B50246002000230024158A05EA00
:102800000103958905EA010413B10CB1012000E030
:10281000002030BD1AB183890B43838102E0838994
:102820008B43838170470000002202881D4B984231
:102830000ED01D4B98420BD0B0F1804F08D01B4BEF
:10284000984205D01A4B984202D01A4B984204D1B4
:102850004FF68F731A404B881A43174B984207D094
:10286000164B984204D04FF6FF431A40CB881A43C8
:1028700002808B8883850B8803850A4B98420BD096
:10288000094B984208D00E4B984205D00D4B984208
:1028900002D00D4B984201D10B7A0386012383822B
:1028A00070470000002C014000340140000400404B
:1028B00000080040000C00400010004000140040E0
:1028C00000400140004401400048014010B540F282
:1028D0002551094800F092F860B1074800F04AF924
:1028E000C4B20649204602F017FB40F225510448C5
:1028F00000F05CF810BD0000004C004068000020B3
:102900000050004010B540F22551094800F076F81B
:1029100060B1074800F02EF9C4B22146054800F026
:10292000D9FD40F22551024800F040F810BD0000EA
:1029300000500040700A002010B540F225510B48AD
:1029400000F05CF880B1094800F014F9C4B20849FD
:10295000204602F0ADFD214606A0FDF7C1FC40F285
:102960002551024800F022F810BD0000004400404C
:1029700048AB00202564000010B540F225510948FD
:1029800000F03CF860B1074800F0F4F8C4B2064922
:10299000204601F051FF40F22551024800F006F8B0
:1029A00010BD0000004800406806002010B500225D
:1029B000002340F66A14A14200D100BF0A1201248C
:1029C0009440A3B2DC43048010BD21B1828942F45B
:1029D0000052828104E082894DF6FF731A408281A1
:1029E000704702460020B1F5007F00D100BF138878
:1029F0000B400BB1012000E00020704770B502468B
:102A0000002400230025002040F66A16B14200D1C0
:102A100000BFC1F3421501F01F03012606FA03F3BC
:102A2000012D02D19689334006E0022D02D1168A8B
:102A3000334001E0968A33400C12012606FA04F472
:102A40001688344013B10CB1012000E0002070BDA5
:102A5000F0B50346002400260025002040F66A1742
:102A6000B94200D100BF1846C1F3421401F01F065D
:102A7000012707FA06F5012C01D10C3004E0022CE5
:102A800001D1103000E014301AB107682F430760FD
:102A900002E00768AF430760F0BD00002DE9F04792
:102AA00086B005460E460024A24600BFA146002778
:102AB000B08900B100BF2F462C8A4CF6FF7004404D
:102AC000F08804432C82AC894EF6F3100440B088A1
:102AD00031890843718908430443AC81AC8A4FF6BD
:102AE000FF400440B0890443AC8201A8FFF7F4FC26
:102AF0001F48874202D1DDF810A001E0DDF80CA0EC
:102B0000A88900F4004040B10AEBCA0000EB0A10AB
:102B100031684900B0FBF1F807E00AEBCA0000EBAE
:102B20000A1031688900B0FBF1F86420B8FBF0F0BE
:102B300004012009642101FB1089A88900F40040E8
:102B400040B1322000EBC900B0FBF1F000F007000B
:102B5000044308E0322000EB09106421B0FBF1F0DF
:102B600000F00F0004432C8106B0BDE8F0870000A0
:102B70000038014001468888C0F308007047C1F35F
:102B8000080282807047000010B514A0FDF7A8FB72
:102B90001348007800EB80011148001D00EB810212
:102BA00000211048FFF769F90D480078401C1421F6
:102BB00090FBF1F201FB1200094908700846807889
:102BC000401C887008468078142806DB0020887036
:102BD0000870487001A0FDF783FB10BD4031000074
:102BE000D40400200064004000BFFEE7490050EA22
:102BF000C12018BF04204A0D18BF40F0010040F268
:102C0000FF72B2EB515F08BF40F00200012808BF1D
:102C10000520704730380A2801D201207047002073
:102C20007047014600BF704710B5FFF74BFD4FF4EA
:102C3000A060FFF7F9FB4FF4E13002F0E1FA4FF446
:102C4000165002F049FA4FF4E13002F0D7F900F0E3
:102C5000F1F900F04FF84FF4164002F0A1FB4FF4E9
:102C6000347002F099F901F03DFE01F069FC01F0C9
:102C700007FF02F017FC00F069F910BD70B50446BB
:102C80000026A078002827DD607800EB8001201D59
:102C900000EB8106A17812A0FDF722FB002507E0DA
:102CA00006F10B00415D10A0FDF71AFB681CC5B2D0
:102CB000B07AA842F4DC0E488079012807D1607808
:102CC000401C142190FBF1F201FB12006070A0780F
:102CD000401EA070002070BD4FF0FF30FBE70000E9
:102CE0000D0A2532640000002D307825327800006E
:102CF0004000002010B58AB001210920FFF7CCFB6D
:102D000001214806FFF7A8FB4FF40070ADF808005A
:102D100003208DF80A0018208DF80B0002A97F48C7
:102D2000FFF76CFA4FF48070ADF8080048208DF87A
:102D30000B0002A97948FFF761FA01214FF4EA106C
:102D4000FFF7E8FA7648FEF765FF07A8FFF70DF9E9
:102D500000208DF822008DF823008DF824008DF8D6
:102D600025008DF826008DF827008DF81E008DF8BF
:102D70001F000C208DF8200001208DF82100092073
:102D8000ADF81C0007A96648FEF7EDFF012803D146
:102D900064A0FDF7A5FA02E067A0FDF7A1FA5124AF
:102DA00000208DF816008DF8170001208DF818000E
:102DB0004FF6FF7000EA4410ADF80C000020ADF8AB
:102DC0000E004FF6FF70ADF81000ADF812000020B5
:102DD000ADF8140001208DF8190003A8FEF736FFA6
:102DE000522401208DF8160000208DF817000120D4
:102DF0008DF818004FF6FF7000EA4410ADF80C0093
:102E00000020ADF80E004FF6FF70ADF81000ADF8E1
:102E100012000020ADF8140001208DF8190003A85D
:102E2000FEF714FF532402208DF8160000208DF8C1
:102E3000170001208DF818004FF6FF7000EA4410CB
:102E4000ADF80C000020ADF80E004FF6FF70ADF8A5
:102E50001000ADF812000020ADF8140001208DF82C
:102E6000190003A8FEF7F2FE542403208DF8160083
:102E700000208DF8170001208DF818004FF6FF7024
:102E800000EA4410ADF80C000020ADF80E004FF63B
:102E9000FF70ADF81000ADF812000020ADF814007E
:102EA00001208DF8190003A8FEF7D0FE5524042058
:102EB0008DF8160000208DF8170001208DF81800FD
:102EC0004FF6FF7000EA4410ADF80C000020ADF89A
:102ED0000E004FF6FF70ADF81000ADF812000020A4
:102EE000ADF8140001208DF8190003A8FEF7AEFE1E
:102EF000012202210A48FEF72DFF14208DF804005C
:102F000000208DF805008DF8060001208DF80700DF
:102F100001A8FFF751FA0AB010BD0000000C0140F3
:102F2000006400400D0A43414E5F496E697420738E
:102F300075636365737300000D0A43414E5F496E0C
:102F40006974206661696C656400000000B589B031
:102F5000012140F20520FFF79FFA4FF40040FFF7F0
:102F60006FFA4020ADF8200000208DF8230008A95A
:102F70002E48FFF743F92E48FEF7CAFD00200090C7
:102F80008DF804008DF805004FF4602002900020B9
:102F9000039001208DF8100069462548FEF7FAFDE0
:102FA00001212348FEF7A9FD2148FEF71BFE00BFC3
:102FB0001F48FEF7E5FD0028FAD11D48FEF722FE66
:102FC00000BF1B48FEF7D2FD0028FAD101211848A6
:102FD000FEF70DFE8020ADF8200004208DF82300C0
:102FE00008A91248FFF70AF907210020FFF7E6F8C1
:102FF0008020069000208DF81C0008208DF81D0010
:1030000001208DF81E0006A8FFF78EF817208DF816
:10301000140000208DF8150001208DF816008DF8A1
:10302000170005A8FFF7C8F909B000BD0008014066
:103030000024014010B56FF00400FFF72DFB0A4893
:1030400000680A49B0FBF1F00949087008460078A9
:1030500000EB4001C1EBC0104FF6FF7101EAC00068
:103060000449088010BD00001C00002000127A00F6
:1030700034000020360000200146114A12884A43DD
:103080004FF0E0235A6100229A611A46126942F019
:1030900001021A6100BF4FF0E022106900F0010246
:1030A0001AB100F48032002AF5D04FF0E022126904
:1030B00022F001024FF0E0231A6100229A6170476A
:1030C0003600002000BF054A128802F04002002AA4
:1030D000F9D0C2B2014B1B1D1A8070470038014065
:1030E0002DE9F04106460F461546287817286FD27D
:1030F000DFE800F0C70CC718C72EC73AC746C75647
:10310000C762C76FC78DC7A1C7B5C60073A13046D8
:10311000FDF7A0FA044624B10220287070A0FDF744
:10312000DFF8B2E070A13046FDF794FA044674B1BE
:10313000A079312808D16EA0FDF7D2F804202870BC
:1031400073A0FDF7CDF802E075A0FDF7C9F89CE08B
:103150007CA13046FDF77EFA044624B10620287093
:103160007AA0FDF7BDF890E07EA13046FDF772FA37
:10317000044624B1082028707BA0FDF7B1F884E054
:103180007EA13046FDF766FA044644B1611D7DA07C
:10319000FDF7A6F80A2028707DA0FDF7A1F874E0DD
:1031A0007EA13046FDF756FA044624B10C20287063
:1031B0007DA0FDF795F868E07FA13046FDF74AFA5B
:1031C000044624B10E2028707EA0FDF789F85CE04B
:1031D00057E080A13046FDF73DFA044624B11020A7
:1031E00028707FA0FDF77CF882A13046FDF732FA07
:1031F00004465CB181A001F06DF90020287081A027
:10320000FDF76EF84FF4FA70FFF736FF3DE033A19B
:103210003046FDF71FFA044664B181480068401E3D
:103220007F4908600846006820B9122028707DA0F8
:10323000FDF756F829E029A13046FDF70BFA0446C0
:1032400064B177480068401E754908600846006808
:1032500020B91420287078A0FDF742F815E07BA172
:103260003046FDF7F7F904464CB1162028700120CE
:10327000A87140F23A20288178A0FDF731F804E0E7
:1032800003E07BA0FDF72CF800BF00BF7EA1304615
:10329000FDF7E0F9044614B17FA0FDF721F883A102
:1032A0003046FDF7D7F90446ACB184A0FDF718F815
:1032B000012080F3138800BF00BF8448006800F439
:1032C000E06083490843001D80490860BFF3408FD8
:1032D00000BF00BFFEE7BDE8F08100004F4B0000DB
:1032E0000D0A4154204F4B002B4346554E3A0000E7
:1032F0000D0A4346554E3D312020726164696F20AE
:103300006672657175656E6379206F70656E000019
:103310000D0A41545F4346554E3F204F4B0000007D
:103320000D0A4346554E3D302020726164696F207E
:103330006672657175656E637920636C6F73652164
:10334000212100002B4347534E3A00000D0A4154FF
:103350005F494D454928C9E8B1B8BAC529204F4B46
:1033600000000000340000000D0A41545F494D5335
:10337000492028BFA8BAC5294F4B00002B43535101
:103380003A0000000D0A4353513D25730000000030
:103390000D0A41545F435351204F4B002B4347418B
:1033A00054543A31000000000D0A41545F43474134
:1033B0005454204F4B0000002B43455245473A30B0
:1033C0002C3100000D0A41545F4345524547204FC0
:1033D0004B0000002B4D49504C4352454154450091
:1033E0000D0A41545F4D49504C43524541544520CC
:1033F0004F4B00004552524F5200000041542B4E9B
:10340000524200000D0A41542B4E52422072656216
:103410006F6F74206E622D696F742021212100006E
:103420003C0000200D0A41545F4D49504C4144443A
:103430004F424A204F4B00000D0A41545F4D495006
:103440004C4E4F54494659204F4B00002B4D49508C
:103450004C4556454E543A302C3600000D0A415426
:103460005F4D49504C4F50454E204F4B00000000DF
:103470000D0A696F745F616E616C797369732065A1
:1034800072726F72212121002B4D49504C455645D7
:103490004E543A302C3131000D0AB4E6BBEECAB1BD
:1034A000BCE4B8FCD0C2B3C9B9A600002B4D49504A
:1034B0004C4556454E543A302C3135000D0A524594
:1034C000534554204D435521212100000CED00E0CF
:1034D0000000FA0570B504460D4604F1D4002168D9
:1034E00045542068401C4FF42041B0FBF1F201FB31
:1034F00012002060A068401CA060A068B0F5204FBA
:1035000007D304A0A168FCF7EBFE0020A0602060B8
:10351000606070BD243D25640000000070B588B077
:1035200005464E48807901286FD1002466E015F8E1
:10353000140001F013FD002828DA6100491C685CC2
:1035400001F00CFD00280BDA6000401C295C3039CA
:1035500015F8140001EB0010C0B20DF804004BE0A8
:103560006100491C685C01F0F9FC002844DB610043
:10357000491C685C01F0F2FC3949095C15F814003B
:1035800001EB0010C0B20DF8040035E015F814008E
:1035900001F0E4FC00282FDB6100491C685C01F0AD
:1035A000DDFC00280FDA15F8140001F0D7FC2C49D7
:1035B000085C6100491C695C303901EB0010C0B245
:1035C0000DF8040018E06100491C685C01F0C6FCBD
:1035D000002811DB6100491C685C01F0BFFC204938
:1035E0000E5C15F8140001F0B9FC1D49085C06EBEF
:1035F0000010C0B20DF80400601CC4B2092C96DBA8
:1036000018A0FCF76DFE002407E025E01DF804106B
:1036100015A0FCF765FE601CC4B2092CF6DB9DF812
:103620000000039000208DF814008DF8150008208C
:103630008DF81600002407E0601C1DF800100DF145
:1036400017000155601CC4B29DF81600A042F3DCBF
:1036500003A90648FEF799FC08B070BD40000020A1
:10366000500000200D0A0000256420000064004086
:1036700070B5A2B00546582101A8FDF72FF82946DC
:103680004EA0FCF72DFE50488079012876D1002409
:1036900062E015F8140001F061FC002826DA6100F0
:1036A000491C685C01F05AFC00280ADA6000401CE2
:1036B000295C303915F8140001EB001017A90855E2
:1036C00048E06100491C685C01F048FC002841DBCF
:1036D0006100491C685C01F041FC3C49095C15F83B
:1036E000140001EB001017A9085533E015F8140079
:1036F00001F034FC00282DDB6100491C685C01F0FE
:103700002DFC00280EDA15F8140001F027FC2F49D3
:10371000085C6100491C695C303901EB001017A995
:10372000085517E06100491C685C01F017FC00288F
:1037300010DB6100491C685C01F010FC23490E5C41
:1037400015F8140001F00AFC2049085C06EB001093
:1037500017A90855601CC4B22C2C9ADB1CA0FCF7DE
:10376000BFFD002406E017A8015D1AA0FCF7B8FD14
:10377000601CC4B22C2CF6DB002414E01BE017A95B
:1037800011F81400000201A941F8240001A850F822
:1037900024006100491C17AA515C084301A941F8A3
:1037A0002400601CC4B2162CE9DB01AB01221621F7
:1037B000002001F083FA22B070BD00000D0A76618E
:1037C0006C3D2573000000004000002050000020E8
:1037D0000D0A00003078253032782D002DE9F041B7
:1037E000A2B005460F46582101A8FCF777FF2946ED
:1037F00055A0FCF775FD3E4656488079012877D1E3
:10380000002463E015F8140001F0A8FB002826DA74
:103810006100491C685C01F0A1FB00280ADA600025
:10382000401C295C303915F8140001EB001017A971
:10383000085549E06100491C685C01F08FFB0028D5
:1038400042DB6100491C685C01F088FB4249095C6D
:1038500015F8140001EB001017A9085534E015F80D
:10386000140001F07BFB00282EDB6100491C685C22
:1038700001F074FB00280EDA15F8140001F06EFB5D
:103880003549085C6100491C695C303901EB001066
:1038900017A9085518E06100491C685C01F05EFB3F
:1038A000002811DB6100491C685C01F057FB2A49C4
:1038B00011F8008015F8140001F050FB2649085C4F
:1038C00008EB001017A90855601CC4B2B44299DB7C
:1038D00022A0FCF705FD002406E017A8015D20A04A
:1038E000FCF7FEFC601CC4B2B442F6DB002414E01A
:1038F00027E017A911F81400000201A941F82400DB
:1039000001A850F824006100491C17AA515C084323
:1039100001A941F82400601CC4B206EBD671B4EBD7
:10392000610FE6DB282E06D101AB01220A2100201F
:1039300001F0C4F905E001AB01220C21002001F0E7
:10394000BDF922B0BDE8F0810D0A76616C3D2573AA
:103950000000000040000020500000200D0A000080
:103960003078253032782D002DE9F04FA7B006468B
:1039700064210EA8FCF7B2FE8AA00D9000200B90E7
:10398000824600240A90002588A106F10C00FCF76D
:1039900061FE0746002F4FD087A13846FCF754FE42
:1039A0000C9086A10020FCF74FFE0B9083A1002015
:1039B000FCF74AFE824681A10020FCF745FE044642
:1039C0007EA10020FCF740FE0A907CA10020FCF7BD
:1039D0003BFE05460A9823465246CDE9000578A0ED
:1039E0000B99FCF77DFC7CA12046FCF733FE88B1E7
:1039F00000207BA20123CDE905200021049352463B
:103A0000CDE90253CDE90041079076A00B9900F073
:103A100072FD11E0002104230D98CDE9050101207C
:103A20000791CDE901150094CDE903030346524601
:103A30006CA00B9900F05FFD77A106F10C00FCF77C
:103A400009FE0746002F54D05BA13846FCF7FCFD69
:103A50000C905AA10020FCF7F7FD0B9057A1002015
:103A6000FCF7F2FD824655A10020FCF7EDFD04466F
:103A700052A10020FCF7E8FD0A9050A10020FCF7BD
:103A8000E3FD05464DA10020FCF7DEFD09904BA1AA
:103A90000020FCF7D9FD804648A10020FCF7D4FDAA
:103AA000814646A10020FCF7CFFD8346099802A974
:103AB000A1E8010B0A9823465246CDE9000559A01A
:103AC0000B99FCF70DFC51465FA000F014FD42A1DC
:103AD0002046FCF7BFFD68B14846FCF7A7FD6149E9
:103AE00088804846FCF7A2FD014608905EA0FCF7DE
:103AF000F7FB53E061A12046FCF7ACFD48B161A1A2
:103B00004046FCF7A7FD002848D04846FFF706FDD1
:103B100044E05DA12046FCF79DFD00283ED05CA15D
:103B20004046FCF797FD5BA14046FCF793FD00285B
:103B30001CD059A14846FCF78DFD60B101204949D0
:103B40008873002301221021184601F057F859A06C
:103B5000FCF7C6FB0AE05CA14846FCF77BFD28B1F8
:103B60000020404988735FA0FCF7BAFB62A1404681
:103B7000FCF770FD10B14846FFF77AFD5FA14046A3
:103B8000FCF768FD5EA14046FCF764FD30B15DA026
:103B9000FCF7A6FB2C214846FFF720FE27B0BDE826
:103BA000F08F000022776F72642200002B4D495085
:103BB0004C524541443A00003A0000002C000000FD
:103BC0000D0A737472746F6B3D2573202573202565
:103BD000732025732025730033323030000000003D
:103BE0002241220041542B4D49504C5245414452F0
:103BF00053503D25732C25732C25642C25732C25BF
:103C0000642C25732C25642C25642C25732C2564A9
:103C10002C25640D0A0000002B4D49504C57524989
:103C200054453A000D0A737472746F6B3D2573200E
:103C300025732025732025732025732025732025C7
:103C4000732025732025730041542B4D49504C5748
:103C5000524954455253503D302C25732C320D0A95
:103C600000000000400000200D0A736574206865A4
:103C70006172742074696D653D25640033323031A2
:103C80000000000031380000333333300000000002
:103C900032000000323400003030303030306666A0
:103CA00061613036303130333030303030303130A7
:103CB000000000000D0A72657175737420726A3419
:103CC0003520737461727400303030303030666685
:103CD0006161303630313033303030303030303078
:103CE000000000000D0A72657175737420726A34E9
:103CF0003520656E64000000383800003430000064
:103D0000343800000D0A6F74686572732064617442
:103D1000610000002DE9F04704468946D4F8008090
:103D20006668A7685A480078012866D14FF4204099
:103D3000B6FBF0F100FB116104F1D400405C0D28EA
:103D40004AD1701C4FF42041B0FBF1F201FB12018B
:103D500004F1D400405C0A283ED100204C49087090
:103D600000250EE04B48006828444FF42041B0FB8A
:103D7000F1F201FB120104F1D400415CC838415555
:103D80006D1C454800688542ECD304F10C0143A04A
:103D9000FCF7A6FA434A002104F10C00FFF7A0F952
:103DA0002046FFF7E1FD002504E0002104F10C00AE
:103DB00041556D1CC82DF8D3A068801EA0606068B6
:103DC000801C4FF42041B0FBF1F201FB1200606057
:103DD00000203149086010E02F480068401C2E493F
:103DE0000860A068401EA0606068401C4FF420413D
:103DF000B0FBF1F201FB12006060062F46D32448AD
:103E0000007890BB4FF42040B6FBF0F100FB11614D
:103E100004F1D400405C0D2828D1701C4FF42041DF
:103E2000B0FBF1F201FB120104F1D400405C0A285E
:103E30001CD1002018490860012015490870A068AD
:103E4000801EA0606068801C4FF42041B0FBF1F23E
:103E500001FB120060606068B0FBF1F201FB120030
:103E60000C4908606420FFF707F90FE0A068401EC6
:103E7000A0606068401C4FF42041B0FBF1F201FBF0
:103E8000120060606FF00100BDE8F08700BFFBE743
:103E900056000020580000205C0000200D0A523D12
:103EA000257300004000002010B504462078172834
:103EB00077D2DFE800F00C171F2A323D45505863D7
:103EC0006B777F8A929DA5D9E1F0EFEEED009DA082
:103ED00000F000FB9CA0FCF703FA012020700A20F0
:103EE00060702BE1607820B90020207099A0FCF769
:103EF000F7F923E19BA000F0EDFA9DA0FCF7F0F9A3
:103F0000032020700A20607018E1607820B9022038
:103F100020709AA0FCF7E4F910E19EA000F0DAFA14
:103F20009FA0FCF7DDF9052020700A20607005E1F4
:103F3000607820B9042020709CA0FCF7D1F9FDE046
:103F4000A0A000F0C7FAA1A0FCF7CAF907202070D2
:103F50000A206070F2E0607820B9062020709EA0F0
:103F6000FCF7BEF9EAE0A2A000F0B4FAA2A0FCF7C8
:103F7000B7F9092020700A206070DFE0607820B96E
:103F8000082020709FA0FCF7ABF9D7E0A2A000F0BA
:103F9000A1FAA4A0FCF7A4F90B2020700A206070FD
:103FA000CCE0C7E0607820B90A202070A0A0FCF720
:103FB00097F9C3E0A4A000F08DFAA6A0FCF790F951
:103FC0000D2020700A206070B8E0607820B90C20C5
:103FD0002070A3A0FCF784F9B0E0A74800F07AFABB
:103FE000A6A0FCF77DF90F2020700A206070A5E0E4
:103FF000607820B90E202070A8A0FCF771F99DE030
:10400000B0A000F067FA6420FFF736F8B548006802
:10401000401CB4490860B4A000F05CFA6420FFF7CB
:104020002BF8B0480068401CAE490860B6A000F00C
:1040300051FA6420FFF720F8AA480068401CA949FB
:104040000860B9A000F046FA6420FFF715F8A5480B
:104050000068401CA3490860BBA0FCF741F911208F
:1040600020700A20607069E0607820B9102020700C
:10407000B9A0FCF735F961E0BEA000F02BFA64208E
:10408000FEF7FAFF97480068401C9649086003E075
:1040900046E03DE031E028E0C2A000F01BFA6420D9
:1040A000FEF7EAFF8F480068401C8E490860C8A0F0
:1040B00000F010FA6420FEF7DFFF8A480068401C19
:1040C00088490860CEA000F005FA6420FEF7D4FF0E
:1040D00084480068401C83490860D5A0FCF700F9BB
:1040E000132020700A20607028E0607820B9122028
:1040F0002070D3A0FCF7F4F820E0D8A000F0EAF993
:10410000DCA0FCF7EDF8152020700A20607015E0A7
:10411000607820B914202070DAA0FCF7E1F80DE0F7
:10412000208900B110BD40F23A202081DCA000F0CF
:10413000D1F903E0E0A0FCF7D3F800BF00BF00BF57
:10414000F0E70000415400000D0A415420746573EB
:10415000740000000D0A4154207465737420616777
:1041600061696E0041542B4346554E3F00000000EC
:104170000D0A41542B4346554E3F00000D0A415451
:104180002B4346554E3F2074657374206167616907
:104190006E00000041542B4347534E3D3100000058
:1041A0000D0A41542B4347534E3D31000D0A4154F3
:1041B0002B4347534E3D3120746573742061676112
:1041C000696E000041542B43494D49000D0A41548A
:1041D0002B43494D490000000D0A41542B43494DE2
:1041E00049207465737420616761696E0000000086
:1041F00041542B43535100000D0A41542B4353515A
:10420000000000000D0A41542B4353512074657384
:104210007420616761696E0041542B4347415454D7
:104220003F0000000D0A41542B43474154543F00C6
:104230000D0A41542B43474154543F207465737415
:1042400020616761696E000041542B434552454728
:104250003F0000000D0A41542B43455245473F00A3
:104260000D0A41542B43455245473F2074657374F2
:1042700020616761696E0000685700080D0A4154AB
:104280002B4D49504C4352454154453D34392C3116
:1042900033302E2E2E2E2E2E000000000D0A4154FB
:1042A0002B4D49504C4352454154453D34392C31F6
:1042B00033302E2E2E2E2E2E2074657374206167BF
:1042C00061696E0041542B4D49504C4144444F426A
:1042D0004A3D302C333230302C312C2231222C31DB
:1042E0002C3000003C00002041542B4D49504C41E3
:1042F00044444F424A3D302C333230312C312C2251
:1043000032222C312C30000041542B4D49504C416D
:1043100044444F424A3D302C333230322C312C222F
:1043200033222C312C30000041542B4D49504C414C
:1043300044444F424A3D302C333333302C312C220D
:1043400034222C312C3000000D0A41542B4D4950A1
:104350004C4144444F424A000D0A41542B4D4950B0
:104360004C4144444F424A20746573742061676134
:10437000696E000041542B4D49504C4E4F544946F4
:10438000593D302C302C333230302C302C353735F1
:10439000302C312C352C226865617274222C302C23
:1043A0003000000041542B4D49504C4E4F5449466B
:1043B000593D302C302C333230312C302C353735C0
:1043C000302C312C332C2263616E222C302C3000A7
:1043D00041542B4D49504C4E4F544946593D302C79
:1043E000302C333230322C302C353735302C312CC8
:1043F000342C22726A3435222C302C30000000001C
:1044000041542B4D49504C4E4F544946593D302C48
:10441000302C333333302C302C353735302C312C95
:10442000352C226C61736572222C302C3000000018
:104430000D0A41542B4D49504C4E4F54494659009A
:104440000D0A41542B4D49504C4E4F54494659206A
:104450007465737420616761696E000041542B4D6F
:1044600049504C4F50454E3D302C3630302C333077
:10447000000000000D0A41542B4D49504C4F50454F
:104480004E0000000D0A41542B4D49504C4F5045F1
:104490004E207465737420616761696E00000000CE
:1044A00041542B4D49504C5550444154453D302CBE
:1044B0003630302C3100000070696F745F646174B5
:1044C000615F742D3E7374617465206572726F72E2
:1044D0002121210010B5044603E0207800F074FE8D
:1044E000641C20780028F8D10D2000F06DFE0A2011
:1044F00000F06AFE10BD0FB400B5C1B04FF480717A
:1045000001A8FCF7EBF843A8009001A8009A429993
:10451000FBF7D4FE0020009001A800F065FE41B03A
:104520005DF814FB4178002902DD4178491E417095
:104530004188002902DD4188491E41807047000002
:104540001FB501211020FDF7A7FF1020ADF80C00CA
:1045500048208DF80F0003A91148FDF74FFE0421F4
:104560000220FDF72BFE1020019000208DF808009E
:104570000C208DF8090001208DF80A0001A8FDF734
:10458000D3FD0A208DF8000000208DF801008DF881
:10459000020001208DF803006846FDF70DFF1FBDE6
:1045A0000010014001460023002203E0885C4340E4
:1045B000501CC2B2072AF9DBC879984201D1002009
:1045C00070474FF0FF30FBE730B502460B46002046
:1045D0000CE054882118CC1701EB9454A412A1EBE1
:1045E0008425D41D645D1C54411CC8B20828F0DB2E
:1045F00030BD000070B50446A07800F0800020B106
:1046000009A0FBF76DFE00250CE02079002101EBED
:104610000040617900EB0120A1794518294608A0E6
:10462000FBF75EFE284670BD0D0A6C617365722053
:1046300064697374616E636520657272726F720073
:104640000D0A64697374616E63653D256400000042
:104650007CB50546A87900B17CBD0120A871A520D4
:104660008DF800005A208DF8010002208DF802001C
:1046700000208DF80300FD208DF80400002405E0E3
:104680001DF8040000F0FEFE601CC4B2052CF7DB30
:1046900000BFE1E72DE9FE4F04460F46B4F8048061
:1046A000B4F8009066884FF0000AB8F1080F7DDB7F
:1046B000F21706EB92529212A6EB8223E21DD25C15
:1046C000B42A79D1701CC21700EB92529212A0EB5F
:1046D0008223E21DD25C692A6ED101A92046FFF730
:1046E00073FF01A8FFF75EFFA0B13DA0FBF7F8FD47
:1046F0003FA0FBF7F5FD002506E0E01D415D3DA074
:10470000FBF7EEFD681CC5B2082DF6DB38A0FBF701
:10471000E7FD37E036A0FBF7E3FD002506E001A842
:10472000415D34A0FBF7DCFD681CC5B2082DF6DB4B
:104730002FA0FBF7D5FD01A8FFF75CFF10B3B879F8
:1047400001280CD19DF80A0000909DF809309DF8D1
:1047500008209DF8071029A0FFF7CDFE12E0387B56
:1047600001280FD19DF8070000F00AFE9DF808000F
:1047700000F006FE9DF8090000F002FE9DF80A0018
:1047800000F0FEFD002504E0002001A94855681C4A
:10479000C5B2082DF8DBA0880838A080618801F137
:1047A0000800C11700EB9151891201E011E003E00C
:1047B000A0EB8121618010E0A088401EA08061886C
:1047C000481CC11700EB91518912A0EB8121618037
:1047D00003E04FF0FF30BDE8FE8F0020FBE7000054
:1047E0000D0A636865636B206572726F720000006A
:1047F0000D0A0000307825782D2D2D0041542B4DC9
:1048000049504C4E4F544946593D302C302C33338F
:1048100033302C302C353735302C312C382C2225A8
:10482000303278253032782530327825303278228F
:104830002C302C300D0A000070B505460C4621883E
:10484000E01D45542188481CC11700EB9151891285
:10485000A0EB81212180A088401CA080A088B0F519
:10486000806F06DB03A0FBF73BFD0020A0802080CB
:10487000608070BD2A0000008179002902DD817905
:10488000491E81717047000010B5044634B1012CF7
:104890000DD0022C19D0032C20D111E0102110488A
:1048A000FDF780FD20210E48FDF77EFD16E020215A
:1048B0000B48FDF777FD20210948FDF775FD0DE058
:1048C00030210748FDF770FD08E010210448FDF78E
:1048D00069FD20210248FDF765FD00BF00BF10BD46
:1048E0000008014008B501210820FDF7D5FD4FF46F
:1048F0004040ADF8000010208DF8030003208DF833
:10490000020069461248FDF779FC4FF44041104817
:10491000FDF748FD4FF480410D48FDF745FD0121AD
:104920000420FDF7B9FD3020ADF8000010208DF80F
:10493000030003208DF8020069460648FDF75EFC7F
:1049400030210448FDF730FD0020FFF79DFF08BD32
:10495000000C014000080140AAB0002026902790DA
:10496000289029909422324901A8FBF785FEFEF792
:104970005BF95CE02F488079012810D12D484088F0
:1049800068B92C48808800EB80004FF6FF7101EA7F
:10499000400028494880FF2127A0FFF7ACFD2548AB
:1049A0008079012802D02348408930B12148FFF79F
:1049B0007BFA00212C48FFF7ADF91E4880790128C9
:1049C0000AD01C48408938B92848007820B901200D
:1049D000184908732549087016488079012803D0C2
:1049E0001448007B012812D12148FFF731FE1148FD
:1049F000407B60B90F48807B012808D103200D4916
:104A00004873002301221021184600F0F7F81948D6
:104A1000FEF734F907491648FFF73CFE164800F048
:104A2000C1F92046641C1549884200DB4C42A1E7CD
:104A3000505500084000002041542B4D49504C4E29
:104A40004F544946593D302C302C333333302C30C1
:104A50002C353735302C312C322C2225303278222F
:104A60002C302C300D0A0000700A002019000020A4
:104A700068060020D40400206800002020A1070060
:104A800010B500F04BF800F003F800F01DF810BD71
:104A900008B501210820FDF7FFFC4FF40050ADF8E8
:104AA000000010208DF8030003208DF802006946F5
:104AB0000448FDF7A3FB4FF400510248FDF774FCD6
:104AC00008BD0000000C014008B54FF48050ADF85F
:104AD000000003208DF8020010208DF803006946C5
:104AE0000448FDF78BFB4FF480510248FDF75CFC56
:104AF00008BD0000000C014010B50446012C04D193
:104B000004210548FDF750FC04E01CB904210248CB
:104B1000FDF748FC10BD00000010014008B5012160
:104B20001020FDF7B9FC0420ADF8000010208DF82E
:104B3000030003208DF8020069460348FDF75EFB81
:104B40000120FFF7D9FF08BD0010014070B59EB0ED
:104B50000546AE7BAC1D287B012847D1687B032826
:104B600044D123A0FBF7BCFB0934E07FA17F627F27
:104B7000237FCDE91932CDE91B10E07EA17E627E54
:104B8000237ECDE91532CDE91710E07DA17D627D50
:104B9000237DCDE91132CDE91310E07CA17C627C4C
:104BA000237CCDE90D32CDE90F10E27BA17B607B48
:104BB000237BCDE90930CDE90B12E07AA17A627A44
:104BC000237ACDE90532CDE90710E279A079617940
:104BD0002379CDE90131CDE90302E0780090A37893
:104BE000627814F809190448FFF785FC1EB070BDFF
:104BF0000D0A313233000000BC5600082DE9F043A5
:104C00008DB005460E4690469946062700208DF841
:104C100000008DF801008DF80200FF208DF80300E0
:104C2000AA208DF804008DF8057001208DF806008B
:104C300003208DF80700280A8DF80800E8B28DF8E7
:104C40000900300A8DF80A00F0B28DF80B0000243C
:104C500004E01DF8040000F02FFA641C0C2CF8DBB3
:104C60000121114880F86B1404E00F4890F86B04A0
:104C700000B905E0601C04464CF250318842F4DD76
:104C800000BF0AA0FBF72CFB0020044606E01DF83D
:104C9000041008A0FBF724FB601C04460C2CF6DB78
:104CA0000DB0BDE8F0830000680000200D0A7265B9
:104CB00061643D002D307825780000002DE9F04733
:104CC0009AB006460D4692461F4668064FEA10699E
:104CD00009F1070000F0FF0800208DF804008DF8AE
:104CE00005008DF80600FF208DF80700AA208DF83A
:104CF00008008DF8098001208DF80A0010208DF839
:104D00000B00300A8DF80C00F0B28DF80D00280A67
:104D10008DF80E00E8B28DF80F008DF81090002489
:104D20000EE017F8241060000E3001AA115437F875
:104D30002400C0F3072160000D301154601CC4B280
:104D4000AC42EEDB002405E001A9085D00F0B4F9F7
:104D5000601CC4B208F106008442F5DB01200B4957
:104D600081F86A040AA0FBF7BBFA002406E001A858
:104D7000015D0AA0FBF7B4FA601CC4B208F106009A
:104D80008442F4DB1AB0BDE8F08700006800002020
:104D90000D0A77726974653D000000002D3078259A
:104DA000303278002DE9F05F0446B4F80480B4F89E
:104DB000009065880027B8F10A0F74DB4FEAE57AA6
:104DC00005EB9A5A4FEAAA2AA5EB8A2B04F16A0A44
:104DD0001AF80BA0BAF1000F7ED16B1C4FEAE37AF0
:104DE00003EB9A5A4FEAAA2AA3EB8A2B04F16A0A28
:104DF0001AF80BA0BAF1000F74D1AA1C4FEAE27A9C
:104E000002EB9A5A4FEAAA2AA2EB8A2B04F16A0A09
:104E10001AF80BA0BAF1000F64D1E91C4FEAE17A4D
:104E200001EB9A5A4FEAAA2AA1EB8A2B04F16A0AEB
:104E30001AF80BA0BAF1FF0F54D1281D4FEAE07AFF
:104E400000EB9A5A4FEAAA2AA0EB8A2B04F16A0ACD
:104E50001AF80BA0BAF1AA0F44D1681DC11700EBD4
:104E600091518912A0EB812204F16A018F5CB81D77
:104E7000C7B2B84533DB00260EE061888819C11738
:104E800000EB91518912A0EB812204F16A018A5C46
:104E9000A11D8A55701CC6B2BE42EEDB1AA0FBF7FC
:104EA0001FFA002607E02AE0A01D815D18A0FBF78D
:104EB00017FA701CC6B2BE42F6DB2046FFF746FE6C
:104EC000A088C01BA0806188C819C11700EB915150
:104ED0008912A0EB812100E004E0618012E0012052
:104EE000BDE8F09FA088401EA0806188481CC117C3
:104EF00000EB91518912A0EB8121618002E04FF01B
:104F0000FF30EDE70020EBE70D0A726A34353D0013
:104F1000307825782D2D2D0070B505460C4621885A
:104F200004F16A0045542188481CC11700EB9151D7
:104F30008912A0EB81212180A088401CA080A0883C
:104F4000B0F5806F06DB04A0FBF7CAF90020A08053
:104F50002080608070BD0000260000000CB5024675
:104F60000BA309CBCDE90003612A0CDB002107E08C
:104F70001DF80100904201D108460CBD481C0146B5
:104F80000629F5DB02E04FF0FF30F6E700BFF4E75B
:104F900061626364656600001FB504460121042058
:104FA000FDF75AFA42F21070ADF80800601E80B2A8
:104FB000ADF804000020ADF80A00ADF8060001A924
:104FC0000D48FDF731FC012211460B48FDF722FC8C
:104FD0001E208DF8000001208DF8010000208DF8C2
:104FE000020001208DF803006846FDF7E5F9012174
:104FF0000148FDF7F2FB1FBD0008004010B586B068
:1050000004460121C804FDF727FA01211120FDF70C
:1050100043FA4FF48060ADF8140003208DF81600B9
:1050200018208DF8170005A91D48FDF7E7F84FF483
:105030000060ADF8140004208DF8170005A9184889
:10504000FDF7DCF834208DF8000000208DF8010019
:105050008DF8020001208DF803006846FDF7ACF9D9
:1050600001940020ADF80800ADF80A00ADF80C007E
:10507000ADF810000C20ADF80E0001A90948FDF7AD
:105080000DFD012240F225510648FDF7E1FC01210A
:105090000448FDF79AFC04A0FBF722F906B010BD06
:1050A00000100140004C00400D0A756172743420FC
:1050B000696E69740000000010B504462146054879
:1050C000FDF75DFD00BF40210248FDF78AFC012885
:1050D000F9D110BD004C004010B586B00446012146
:1050E0000805FDF7B9F901213120FDF7D5F90121B6
:1050F0000820FDF7D1F94FF40050ADF8140010204E
:105100008DF8170003208DF8160005A92648FDF735
:1051100075F84FF400512448FDF746F94FF48050DC
:10512000ADF8140003208DF8160018208DF8170034
:1051300005A91E48FDF762F80420ADF814008DF8AB
:10514000170005A91A48FDF759F835208DF8000019
:1051500000208DF801008DF8020001208DF8030079
:105160006846FDF729F901940020ADF80800ADF874
:105170000A00ADF80C00ADF810000C20ADF80E00E0
:1051800001A90C48FDF78AFC012240F2255109488B
:10519000FDF75EFC01210748FDF717FC06A0FBF7B1
:1051A0009FF806B010BD0000000C01400010014047
:1051B00000140140005000400D0A756172743520E2
:1051C000696E69740000000010B504462146054868
:1051D000FDF7D5FC00BF40210248FDF702FC012885
:1051E000F9D110BD0050004010B5044603E020780E
:1051F000FFF7EAFF641C20780028F8D110BD0000FA
:1052000010B586B00446012144F20400FDF744F9CC
:105210004FF40070ADF8140003208DF8160018202C
:105220008DF8170005A91648FCF7E8FF4FF48060D9
:10523000ADF8140004208DF8170005A91048FCF7FC
:10524000DDFF01940020ADF80800ADF80A00ADF8CC
:105250000C00ADF810000C20ADF80E0001A90948B3
:10526000FDF71CFC01210748FDF7AFFB06A109A0D3
:10527000FBF736F80CA0FBF733F806B010BD0000C2
:1052800000080140003801404A756C203236203257
:10529000303139000D0A25732073746172742E2E1B
:1052A0002E2E2E2E000000000D0A323031392D3006
:1052B000372D32362CB8F8C0EEEEB8B5C4C9D5C219
:1052C000BCB9CCBCFE00000010B586B0044601217C
:1052D0000520FDF7E1F801214804FDF7BDF80420A1
:1052E000ADF8140003208DF8160018208DF8170073
:1052F00005A91D48FCF782FF0820ADF81400042022
:105300008DF8170005A91848FCF778FF26208DF8BE
:10531000000000208DF801008DF8020001208DF8BA
:1053200003006846FDF748F801940020ADF8080036
:10533000ADF80A00ADF80C00ADF810000C20ADF887
:105340000E0001A90948FDF7A9FB012240F22551F1
:105350000648FDF77DFB01210448FDF736FB04A05C
:10536000FAF7BEFF06B010BD00080140004400403F
:105370000D0A7573617274325F696E6974000000A2
:1053800010B5044621460548FDF7F9FB00BF402152
:105390000248FDF726FB0128F9D110BD004400406A
:1053A00010B586B0044601210920FDF775F80121EA
:1053B0008804FDF751F84FF48060ADF81400032025
:1053C0008DF8160018208DF8170005A92748FCF75E
:1053D00015FF4FF40060ADF8140004208DF817009D
:1053E00005A92248FCF70AFF4FF48050ADF81400DD
:1053F00003208DF8160010208DF8170005A91B4812
:10540000FCF7FCFE4FF480511848FCF7CDFF272035
:105410008DF8000000208DF801008DF802000120B9
:105420008DF803006846FCF7C7FF01940020ADF833
:105430000800ADF80A00ADF80C00ADF810000C2023
:10544000ADF80E0001A90A48FDF728FB012240F241
:1054500025510748FDF7FCFA01210548FDF7B5FA8B
:1054600004A0FAF73DFF06B010BD0000000C01409B
:10547000004800400D0A7573617274335F696E698C
:105480007400000010B5044621460548FDF777FB7F
:1054900000BF40210248FDF7A4FA0128F9D110BD50
:1054A0000048004010B54FF4E130FFF70DFF10BD8C
:1054B00070B505460C46218804F16A0045542188E0
:1054C000481CC11700EB91518912A0EB812121806A
:1054D000A088401CA080A088B0F5806F06DB04A0E7
:1054E000FAF7FEFE0020A0802080608070BD0000E2
:1054F0002300000010B500290AD00878002807D042
:1055000005487844FBF7FEFE002801D0002010BDBE
:105510000248784410BD000002030000FA020000B7
:1055200010B500290AD00878002807D0054878442B
:10553000FBF7E8FE002801D0002010BD02487844A7
:1055400010BD0000E6030000DE030000FBF712BC04
:10555000000000000000000000000000FF0000004C
:10556000AA0000001F00000001000000030000006E
:105570001C00000003000000E8000000070000001D
:10558000D00000000B000000B80000000F00000079
:10559000A00000000000000001000000000000006A
:1055A00002000000000000000000000013000000E6
:1055B0008800000000000000000000000000000063
:1055C0006400000000000000000000000700000070
:1055D000D0000000000000000000000003000000F8
:1055E000E800000030313233343536373839414243
:1055F0004344454640305800303132333435363735
:1056000038396162636465664030780004000008E0
:105610000000000000000002000100001000000077
:10562000000000000000000002400000000000A098
:105630000000000005400000000000C8000000005D
:105640000C4000000000409C0000000019400000D9
:105650000020BCBE0000000034400000BFC91B8E0B
:1056600000000004B5400000504BCFD06607E2CFE9
:10567000010000006C4100003E8251AADFEEA73419
:1056800001000000D9420000DCB5A0E23A301F97CB
:10569000FFFFFFFFB4450000FD25A0C8E9A3C14FEF
:1056A000FFFFFFFFFF3F0000000000800000000040
:1056B000FF3F0000000000800000000041542B4D1F
:1056C00049504C4E4F544946593D302C302C3333C1
:1056D00033302C302C353735302C312C36342C22CD
:1056E00025303278253032782530327825303278BE
:1056F00025303278253032782530327825303278AE
:10570000253032782530327825303278253032789D
:10571000253032782530327825303278253032788D
:10572000253032782530327825303278253032787D
:10573000253032782530327825303278253032786D
:10574000253032782530327825303278253032785D
:10575000253032782530327825303278253032784D
:10576000222C302C300D0A0041542B4D49504C4313
:1057700052454154453D34392C3133303033314674
:1057800031303030334632303032333034303031F3
:105790003130303030303030303030303030303107
:1057A00032333133383333324533323333333032BB
:1057B000453334333032453334333033413335338A
:1057C00036333833333030303133314633303030A4
:1057D00038433030303030303030302C302C3439A9
:1057E0002C30000030590008000000206800000044
:1057F0006C0100089859000868000020B0B500004E
:10580000880100081001000043000000F8FFFFFFBE
:1058100000404040404040404040414141414140C3
:105820004040404040404040404040404040404078
:105830004005020202020202020202020202020207
:10584000022020202020202020202002020202020C
:105850000202909090909090101010101010101064
:105860001010101010101010101010100202020270
:1058700002028888888888880808080808080808B4
:1058800008080808080808080808080802020202B0
:1058900040000000000000000000000000000000C8
:1058A00000000000000000000000000000000000F8
:1058B00000000000000000000000000000000000E8
:1058C00000000000000000000000000000000000D8
:1058D00000000000000000000000000000000000C8
:1058E00000000000000000000000000000000000B8
:1058F00000000000000000000000000000000000A8
:105900000000000000000000000000000000000097
:10591000000000001C00000043000000F8FFFFFF33
:105920000C0000000E0000000F0000002E00000020
:105930000000000001020304010203040607080935
:1059400002040608000000000000000000A24A0453
:10595000000000000000000001020304060708091F
:105960000000000000000000000000000000000037
:1059700000053200050000000A00B400000300002A
:105980000A0B0C0D0E0F00000000000000000000CC
:0859900000000000000000000F
:0400000508000131BD
:00000001FF
